:020000040800F2
:1000000000800120C10C00083F0200084D020008DA
:1000100053020008590200085F02000800000000B7
:100020000000000000000000000000006502000861
:100030007302000800000000810200088F0200081F
:10004000090D0008090D0008090D0008090D000838
:10005000090D0008090D0008090D0008090D000828
:10006000090D0008090D0008090D0008090D000818
:10007000090D0008090D0008090D0008090D000808
:10008000090D0008090D0008090D0008090D0008F8
:10009000090D0008090D0008090D0008090D0008E8
:1000A000090D0008090D0008090D0008090D0008D8
:1000B000090D0008090D0008090D0008090D0008C8
:1000C000090D0008090D0008090D0008090D0008B8
:1000D000090D0008090D0008090D0008090D0008A8
:1000E000090D0008090D0008090D0008090D000898
:1000F000090D0008090D0008090D0008090D000888
:10010000090D0008090D0008090D0008090D000877
:10011000090D0008090D0008090D0008090D000867
:10012000090D0008090D0008090D0008090D000857
:10013000090D0008090D0008090D0008090D000847
:1001400000000000000000000000000000000000AF
:10015000090D0008090D0008090D0008090D000827
:10016000090D0008090D0008090D0008090D000817
:10017000090D0008090D0008090D0008090D000807
:04018000090D00085D
:1001840010B5054C237833B9044B13B10448AFF3CD
:1001940000800123237010BD28000020000000000F
:1001A400E810000808B5034B1BB103490348AFF33B
:1001B400008008BD000000002C000020E8100008AA
:1001C40080B500AF00F0F0F80121012000F0AEF995
:1001D40000BF00F047F90346002BFAD001223B216F
:1001E400022000F039FA002000F0AEFB01210220C9
:1001F40000F09CF900BF192000F00CF90346012B14
:10020400F9D1002000F0E6F9042000F00FFA0420F0
:1002140000F0F6F9012000F07BFB022000F06AFAFE
:1002240000BF00F07DFA0346022BFAD1002000F053
:100234006FFB00F0ADFD00BF80BD80B400AF00BF18
:10024400BD465DF8047B704780B400AFFEE780B420
:1002540000AFFEE780B400AFFEE780B400AFFEE776
:1002640080B400AF00BFBD465DF8047B704780B426
:1002740000AF00BFBD465DF8047B704780B400AF9B
:1002840000BFBD465DF8047B704780B400AF00BF7B
:10029400BD465DF8047B704780B500AFFFF790FF63
:1002A40000F01EFE002000F08BFE012000F088FE0E
:1002B400022000F085FE00F029F800BF202112483A
:1002C40000F0E8FC0346002BF8D00F4800F0D5FC02
:1002D4000346022B03D1002000F096FEEDE70A4806
:1002E40000F0CBFC0346032B03D1012000F08CFE6D
:1002F400E3E7054800F0C1FC0346042BDDD10220EE
:1003040000F082FED9E700BF0038014080B582B01A
:1003140000AF0121204800F0CAF801211F4800F075
:10032400C6F83B46184600F0C1FB0123FB710023CD
:100334003B710823BB714FF400733B6004237B7152
:100344003B461946164800F015FB0123FB710023B8
:100354003B710023BB714FF480633B6018237B71B6
:100364003B4619460E4800F005FB002300224FF4DB
:10037400E1310C4800F0D2FB01210A4800F053FCA3
:100384000121084800F064FC0121064800F036FC15
:1003940000BF0837BD4680BD0E00180002001800DB
:1003A400000801400038014080B400AF184A1368C7
:1003B40043F00103136000BF154B1B68C3F34003F4
:1003C400DBB2012BF8D1124A53686FF30103536077
:1003D40000BF0F4B5B68C3F38103DBB2002BF8D182
:1003E4000B4B1B680A4A23F0867323F48033136093
:1003F400074B00225A60064B00221A63044B4FF449
:100404001F029A6000BFBD465DF8047B704700BFC1
:100414000010024080B485B000AF78600023FB7305
:100424007B681B0C03F1804303F504331A687B6873
:1004340003F01F03012101FA03F31A407B6803F060
:100444001F03012101FA03F39A4202D00023FB7334
:1004540001E00123FB73FB7B18461437BD465DF8AE
:10046400047B704780B582B000AF00237B6000231B
:10047400FB7002E07B6801337B601120FFF7CAFF49
:100484000346012B03D07B68B3F5405FF2D3112000
:10049400FFF7C0FF0346012B02D00023FB7001E0ED
:1004A4000123FB70FB7818460837BD4680BD80B435
:1004B40083B000AF78600B46FB70FB78012B16D13C
:1004C4007B681B0C03F1804303F5043319687B68D4
:1004D40003F01F0301229A407B681B0C03F1804345
:1004E40003F50433184641EA0203036017E07B680E
:1004F4001B0C03F1804303F5043319687B6803F094
:100504001F03012202FA03F3DA437B681B0C03F195
:10051400804303F50433184601EA0203036000BF75
:100524000C37BD465DF8047B7047000080B483B08F
:1005340000AF03460A46FB711346BB71FB79042BDB
:100544003ED801A252F823F06105000875050008A1
:10055400890500089D050008B10500081C4ABB79FF
:1005640003F00103D9B2136861F30003136028E0B8
:10057400174ABB7903F00103D9B2136861F310433E
:1005840013601EE0124ABB7903F00103D9B2136869
:1005940061F31863136014E00D4ABB7903F001039F
:1005A400D9B2136A61F3000313620AE0084ABB7903
:1005B40003F00103D9B2536A61F30003536200E00C
:1005C40000BF00BF0C37BD465DF8047B704700BF19
:1005D4000010024080B483B000AF0346FB71074AA9
:1005E400FB7903F00F03D9B2536861F30713536027
:1005F40000BF0C37BD465DF8047B70470010024015
:1006040080B483B000AF0346FB71074AFB7903F063
:100614000703D9B2536861F30A23536000BF0C3750
:10062400BD465DF8047B70470010024080B483B07F
:1006340000AF0346FB71074AFB7903F00703D9B205
:10064400536861F3CD23536000BF0C37BD465DF89A
:10065400047B70470010024080B483B000AF0346AF
:10066400FB710B46BB7113467B71FB79002B0AD1DE
:100674001F4A53686FF3104353601D4A136B43F0D2
:100684000073136312E01A4A536843F480335360CF
:10069400FB79012B05D1164A53686FF3514353601C
:1006A40004E0134A536843F400335360104ABB799F
:1006B40003F00F03D9B2536861F395435360BB79D8
:1006C4001B110B4A03F00303D9B2536861F35E7341
:1006D4005360074A7B7903F00103D9B2536861F38D
:1006E400DF73536000BF0C37BD465DF8047B704771
:1006F4000010024080B483B000AF0346FB71074A88
:10070400FB7903F00303D9B2536861F30103536027
:1007140000BF0C37BD465DF8047B704700100240F3
:1007240080B400AF044B5B68C3F38103DBB21846AB
:10073400BD465DF8047B70470010024080B58AB066
:1007440000AF786000233B6200237B620023FB61DF
:100754000023BB6100237B6100233B61FFF7E0FFC3
:100764000346FB73FB7B022B20D0022B69DC002B9E
:1007740002D0012B16D064E05D4B5B6DC3F34023C4
:10078400DBB2002B0AD05A4B1B6BC3F34063DBB2C2
:10079400002B03D07B68574A1A6056E07B68564AA0
:1007A4001A6052E07B68544A1A604EE0504B5B6812
:1007B400C3F30043DBB2BB614D4B5B68C3F38343BC
:1007C400DBB27B624A4B5B68C3F34173DBB2FB6110
:1007D400FB69002B02D17B6A0F2B06D1FB691A013E
:1007E4007B6A134401337B6202E07B6A02337B62DF
:1007F400BB69002B06D17B6A404A03FB02F27B688B
:100804001A6022E03A4B5B68C3F34043DBB2002B2F
:1008140010D0374B5B6DC3F30133DBB23B623B6AF1
:100824000233354AB2FBF3F37A6A03FB02F27B68C4
:100834001A600AE07B6A304A03FB02F27B681A60A2
:1008440003E07B682C4A1A6000BF294B5B68C3F342
:100854000313DBB27B612A4A7B6913441B783B6137
:100864007B681A683B69DA407B685A60204B5B6896
:10087400C3F30223DBB27B61224A7B6913441B78F6
:100884003B617B685A683B69DA407B68DA60184BE5
:100894005B68C3F3C223DBB27B611B4A7B691344ED
:1008A4001B783B617B685A683B69DA407B689A60D5
:1008B4000F4B5B68C3F30073DBB27B617B699B0006
:1008C4000B4A5268C2F38132D2B213437B610F4A9E
:1008D4007B6913441B783B617B689A683B69B2FB74
:1008E400F3F27B681A6100BF2837BD4680BD00BFA4
:1008F40000100240006CDC0200127A0000093D0086
:100904000011000810110008181100082011000837
:1009140080B483B000AF0346FB71FB79012B05D192
:10092400084A536D43F03003536504E0054A536DA0
:100934006FF30513536500BF0C37BD465DF8047BA8
:10094400704700BF0010024080B483B000AF03467C
:10095400FB71074AFB7903F00303D9B2536D61F3CA
:100964000D33536500BF0C37BD465DF8047B7047FB
:100974000010024080B485B000AF786039603B68F5
:100984001B683B813B689B79032B02D100237B814D
:1009940030E03B689B79002B15D13B685B799BB2B7
:1009A40003F00F037B813B685B79182B03D13A89F1
:1009B4007B681A611EE03B685B79282B1AD13A895F
:1009C4007B685A6116E03B689B791BB203F008030D
:1009D4001AB23B681B791BB203F004031BB2134326
:1009E4001AB23B68DB791BB203F003031BB2134357
:1009F4001BB27B813B89DBB2002B25D00023FB603B
:100A04001FE03A89FB6842FA03F303F00103002B69
:100A140014D07B681B68FA6892000F2101FA02F275
:100A2400D2431A407B681A607B681B687989FA682C
:100A3400920001FA02F21A437B681A60FB680133E0
:100A4400FB60FB68072BDCD93B89FF2B28D93B894A
:100A54001B0A3B810023FB601FE03A89FB6842FAD2
:100A640003F303F00103002B14D07B685B68FA687E
:100A740092000F2101FA02F2D2431A407B685A60B5
:100A84007B685B687989FA68920001FA02F21A437A
:100A94007B685A60FB680133FB60FB68072BDCD979
:100AA40000BF1437BD465DF8047B704780B483B043
:100AB40000AF78607B684FF6FF721A607B68002293
:100AC4009A717B6800221A717B6804225A717B68D0
:100AD4000122DA7100BF0C37BD465DF8047B704714
:100AE40080B483B000AF0346FB71FB79042B06D1BD
:100AF400094B1B68084A43F00403136005E0064BE6
:100B04001B68054A23F00403136000BF0C37BD467D
:100B14005DF8047B704700BF10E000E080B58CB046
:100B240000AFF860B96011461A460B46FB711346D4
:100B3400BB7107F114031846FFF700FEFB682A4A4D
:100B440093420BD0FB68294A934207D0FB68284A9A
:100B5400934203D0FB68274A934202D1FB69FB62AC
:100B640001E03B6AFB62FA6A13469B0013445B0094
:100B74001A46BB68B2FBF3F3BB62B96A1E4BA3FB14
:100B84000123DA0813469B0013445B00CA1A042AA3
:100B940006D8BB6A184AA2FB0323DB08BB6206E043
:100BA400BB6A154AA2FB0323DB080133BB62BB6AA1
:100BB40099B2FA68936861F30F039360FB7903F0C9
:100BC4000103D9B2FA68D36861F30C33D360BB79FB
:100BD40003F00303D9B2FA68136961F30D331361A7
:100BE40000BF3037BD4680BD003801400060014081
:100BF4000064014000680140CDCCCCCC80B483B00B
:100C040000AF78600B46FB70FB7803F00103D9B2A8
:100C14007A68D36861F34D33D36000BF0C37BD46A7
:100C24005DF8047B704780B483B000AF78600B46F6
:100C3400FB70FB7803F00103D9B27A68D36861F3DF
:100C4400C303D36000BF0C37BD465DF8047B704717
:100C540080B483B000AF78600B46FB70FB7803F080
:100C64000103D9B27A68D36861F38203D36000BF09
:100C74000C37BD465DF8047B704780B483B000AF89
:100C840078607B685B689BB218460C37BD465DF89C
:100C9400047B704780B483B000AF786039607B68B0
:100CA4001A683B681340002B01D0012300E00023A5
:100CB40018460C37BD465DF8047B7047002103E0FD
:100CC4000B4B5B58435004310A480B4B42189A4271
:100CD400F6D30A4A02E0002342F8043B084B9A4246
:100CE400F9D300F011F800F0D9F9FFF7D5FA7047FD
:100CF40040110008000000202800002028000020E7
:100D04004C000020FEE7000080B400AF1E4BD3F877
:100D140088301D4A43F47003C2F888301B4A1368B4
:100D240043F00103136000BF184B1B68C3F3400377
:100D3400DBB2012BF8D1154A53686FF301035360FA
:100D440000BF124B5B68C3F38103DBB2002BF8D105
:100D54000E4B1B680D4A23F0867323F48033136013
:100D64000A4B00225A60094B00221A63074B4FF4C6
:100D74001F029A60044B4FF000629A6000BFBD46A8
:100D84005DF8047B704700BF00ED00E000100240F6
:100D940080B588B000AF0023BB610023FB61002352
:100DA4007B6100233B610023FB600023BB60FFF7F2
:100DB400B7FC0346FB71FB79022B20D0022B69DCC4
:100DC400002B02D0012B16D064E03F4B5B6DC3F3C4
:100DD4004023DBB2002B0AD03B4B1B6BC3F34063B5
:100DE400DBB2002B03D0394B394A1A6056E0374B3B
:100DF400384A1A6052E0354B364A1A604EE0324B9C
:100E04005B68C3F30043DBB23B612F4B5B68C3F306
:100E14008343DBB2FB612C4B5B68C3F34173DBB2EE
:100E24007B617B69002B02D1FB690F2B06D17B69A7
:100E34001A01FB6913440133FB6102E0FB690233CD
:100E4400FB613B69002B06D1FB69234A02FB03F3D8
:100E54001E4A136022E01C4B5B68C3F34043DBB2C1
:100E6400002B10D0184B5B6DC3F30133DBB2BB61B5
:100E7400BB690233174AB2FBF3F3FA6902FB03F3CB
:100E8400124A13600AE0FB69124A02FB03F30F4A99
:100E9400136003E00D4B0F4A1A6000BF0A4B5B68F6
:100EA400C3F30313DBB2FB600C4AFB6813441B78E7
:100EB400BB60064B1A68BB6822FA03F3034A13604B
:100EC40000BF2037BD4680BD001002400000002056
:100ED400006CDC0200127A0000093D0028110008B1
:100EE40080B500AF00F0BAF8002000F035F801201A
:100EF40000F032F8022000F02FF8002000F060F833
:100F0400012000F05DF8022000F05AF800F002F829
:100F140000BF80BD80B582B000AF01210C48FFF74F
:100F2400C6FA3B461846FFF7C1FD0123FB710023B7
:100F34003B710023BB7101233B6028237B713B463B
:100F440019460448FFF716FD00BF0837BD4680BDAB
:100F5400020018000008014080B584B000AF0346C9
:100F6400FB71FB79134A52F8233001211846FFF72D
:100F74009EFA07F108031846FFF798FD0123FB7357
:100F840000233B731023BB73FB790B4A32F81330F5
:100F9400BB6004237B73FB79084A52F8233007F1C2
:100FA400080211461846FFF7E5FC00BF1037BD469E
:100FB40080BD00BF180000201000002004000020A5
:100FC40080B483B000AF0346FB71FB79022B10D8C9
:100FD400FB790B4A32F81330002B0BD0FB79084A0B
:100FE40032F81310FB79074A52F823300A461A6183
:100FF40000E000BF0C37BD465DF8047B704700BFBE
:10100400100000200400002080B483B000AF034629
:10101400FB71FB79022B16D8FB790E4A32F8133098
:10102400002B11D0FB790C4A52F82330DA68FB7993
:10103400084931F813301846FB79074951F8233031
:101044004240DA6000E000BF0C37BD465DF8047B27
:10105400704700BF100000200400002080B500AFDE
:101064000420FFF73DFD094B1B68094AA2FB03233B
:101074009B0C084A1360074B1B684FF47A7202FBFF
:1010840003F3054A136000BF80BD00BF00000020C9
:1010940083DE1B43440000204800002070B50D4D42
:1010A4000D4C641BA4100026A64209D10B4D0C4C18
:1010B40000F018F8641BA4100026A64205D170BDE8
:1010C40055F8043B98470136EEE755F8043B98473A
:1010D4000136F2E738110008381100083811000809
:1010E4003C110008F8B500BFF8BC08BC9E46704728
:0C10F400F8B500BFF8BC08BC9E46704771
:1011000000000000000000000102030406070809B7
:1011100000000000010203040000000001020304BB
:1011200002040608020C0810000000000000000085
:0811300001020304060708098F
:04113800A901000801
:04113C008501000821
:1011400000127A0000140140001401400014014014
:101150000020004000800000050018000500180075
:08116000050018000100000069
:0400000508000CC122
:00000001FF
